{
  "_format": "hh-sol-artifact-1",
  "contractName": "CryptOfGreedNFT",
  "sourceName": "contracts/CryptOfGreedNFT.sol",
  "abi": [
    {
      "inputs": [],
      "stateMutability": "nonpayable",
      "type": "constructor"
    },
    {
      "inputs": [
        {
          "internalType": "address",
          "name": "sender",
          "type": "address"
        },
        {
          "internalType": "uint256",
          "name": "tokenId",
          "type": "uint256"
        },
        {
          "internalType": "address",
          "name": "owner",
          "type": "address"
        }
      ],
      "name": "ERC721IncorrectOwner",
      "type": "error"
    },
    {
      "inputs": [
        {
          "internalType": "address",
          "name": "operator",
          "type": "address"
        },
        {
          "internalType": "uint256",
          "name": "tokenId",
          "type": "uint256"
        }
      ],
      "name": "ERC721InsufficientApproval",
      "type": "error"
    },
    {
      "inputs": [
        {
          "internalType": "address",
          "name": "approver",
          "type": "address"
        }
      ],
      "name": "ERC721InvalidApprover",
      "type": "error"
    },
    {
      "inputs": [
        {
          "internalType": "address",
          "name": "operator",
          "type": "address"
        }
      ],
      "name": "ERC721InvalidOperator",
      "type": "error"
    },
    {
      "inputs": [
        {
          "internalType": "address",
          "name": "owner",
          "type": "address"
        }
      ],
      "name": "ERC721InvalidOwner",
      "type": "error"
    },
    {
      "inputs": [
        {
          "internalType": "address",
          "name": "receiver",
          "type": "address"
        }
      ],
      "name": "ERC721InvalidReceiver",
      "type": "error"
    },
    {
      "inputs": [
        {
          "internalType": "address",
          "name": "sender",
          "type": "address"
        }
      ],
      "name": "ERC721InvalidSender",
      "type": "error"
    },
    {
      "inputs": [
        {
          "internalType": "uint256",
          "name": "tokenId",
          "type": "uint256"
        }
      ],
      "name": "ERC721NonexistentToken",
      "type": "error"
    },
    {
      "inputs": [
        {
          "internalType": "address",
          "name": "owner",
          "type": "address"
        }
      ],
      "name": "OwnableInvalidOwner",
      "type": "error"
    },
    {
      "inputs": [
        {
          "internalType": "address",
          "name": "account",
          "type": "address"
        }
      ],
      "name": "OwnableUnauthorizedAccount",
      "type": "error"
    },
    {
      "anonymous": false,
      "inputs": [
        {
          "indexed": true,
          "internalType": "address",
          "name": "owner",
          "type": "address"
        },
        {
          "indexed": true,
          "internalType": "address",
          "name": "approved",
          "type": "address"
        },
        {
          "indexed": true,
          "internalType": "uint256",
          "name": "tokenId",
          "type": "uint256"
        }
      ],
      "name": "Approval",
      "type": "event"
    },
    {
      "anonymous": false,
      "inputs": [
        {
          "indexed": true,
          "internalType": "address",
          "name": "owner",
          "type": "address"
        },
        {
          "indexed": true,
          "internalType": "address",
          "name": "operator",
          "type": "address"
        },
        {
          "indexed": false,
          "internalType": "bool",
          "name": "approved",
          "type": "bool"
        }
      ],
      "name": "ApprovalForAll",
      "type": "event"
    },
    {
      "anonymous": false,
      "inputs": [
        {
          "indexed": false,
          "internalType": "uint256",
          "name": "_fromTokenId",
          "type": "uint256"
        },
        {
          "indexed": false,
          "internalType": "uint256",
          "name": "_toTokenId",
          "type": "uint256"
        }
      ],
      "name": "BatchMetadataUpdate",
      "type": "event"
    },
    {
      "anonymous": false,
      "inputs": [
        {
          "indexed": false,
          "internalType": "uint256",
          "name": "_tokenId",
          "type": "uint256"
        }
      ],
      "name": "MetadataUpdate",
      "type": "event"
    },
    {
      "anonymous": false,
      "inputs": [
        {
          "indexed": true,
          "internalType": "address",
          "name": "previousOwner",
          "type": "address"
        },
        {
          "indexed": true,
          "internalType": "address",
          "name": "newOwner",
          "type": "address"
        }
      ],
      "name": "OwnershipTransferred",
      "type": "event"
    },
    {
      "anonymous": false,
      "inputs": [
        {
          "indexed": true,
          "internalType": "address",
          "name": "from",
          "type": "address"
        },
        {
          "indexed": true,
          "internalType": "address",
          "name": "to",
          "type": "address"
        },
        {
          "indexed": true,
          "internalType": "uint256",
          "name": "tokenId",
          "type": "uint256"
        }
      ],
      "name": "Transfer",
      "type": "event"
    },
    {
      "inputs": [
        {
          "internalType": "address",
          "name": "to",
          "type": "address"
        },
        {
          "internalType": "uint256",
          "name": "tokenId",
          "type": "uint256"
        }
      ],
      "name": "approve",
      "outputs": [],
      "stateMutability": "nonpayable",
      "type": "function"
    },
    {
      "inputs": [
        {
          "internalType": "address",
          "name": "owner",
          "type": "address"
        }
      ],
      "name": "balanceOf",
      "outputs": [
        {
          "internalType": "uint256",
          "name": "",
          "type": "uint256"
        }
      ],
      "stateMutability": "view",
      "type": "function"
    },
    {
      "inputs": [
        {
          "internalType": "uint256",
          "name": "tokenId",
          "type": "uint256"
        }
      ],
      "name": "burnToken",
      "outputs": [],
      "stateMutability": "nonpayable",
      "type": "function"
    },
    {
      "inputs": [
        {
          "internalType": "uint256",
          "name": "tokenId",
          "type": "uint256"
        }
      ],
      "name": "getApproved",
      "outputs": [
        {
          "internalType": "address",
          "name": "",
          "type": "address"
        }
      ],
      "stateMutability": "view",
      "type": "function"
    },
    {
      "inputs": [
        {
          "internalType": "uint256",
          "name": "tokenId",
          "type": "uint256"
        }
      ],
      "name": "getTokenTier",
      "outputs": [
        {
          "internalType": "string",
          "name": "",
          "type": "string"
        }
      ],
      "stateMutability": "view",
      "type": "function"
    },
    {
      "inputs": [
        {
          "internalType": "uint256",
          "name": "tokenId",
          "type": "uint256"
        }
      ],
      "name": "investToken",
      "outputs": [],
      "stateMutability": "nonpayable",
      "type": "function"
    },
    {
      "inputs": [
        {
          "internalType": "address",
          "name": "owner",
          "type": "address"
        },
        {
          "internalType": "address",
          "name": "operator",
          "type": "address"
        }
      ],
      "name": "isApprovedForAll",
      "outputs": [
        {
          "internalType": "bool",
          "name": "",
          "type": "bool"
        }
      ],
      "stateMutability": "view",
      "type": "function"
    },
    {
      "inputs": [
        {
          "internalType": "uint256",
          "name": "tokenId",
          "type": "uint256"
        }
      ],
      "name": "isTokenInvested",
      "outputs": [
        {
          "internalType": "bool",
          "name": "",
          "type": "bool"
        }
      ],
      "stateMutability": "view",
      "type": "function"
    },
    {
      "inputs": [
        {
          "internalType": "address",
          "name": "player",
          "type": "address"
        },
        {
          "internalType": "string",
          "name": "uri",
          "type": "string"
        },
        {
          "internalType": "string",
          "name": "tier",
          "type": "string"
        }
      ],
      "name": "mintGameItem",
      "outputs": [
        {
          "internalType": "uint256",
          "name": "",
          "type": "uint256"
        }
      ],
      "stateMutability": "nonpayable",
      "type": "function"
    },
    {
      "inputs": [],
      "name": "name",
      "outputs": [
        {
          "internalType": "string",
          "name": "",
          "type": "string"
        }
      ],
      "stateMutability": "view",
      "type": "function"
    },
    {
      "inputs": [],
      "name": "owner",
      "outputs": [
        {
          "internalType": "address",
          "name": "",
          "type": "address"
        }
      ],
      "stateMutability": "view",
      "type": "function"
    },
    {
      "inputs": [
        {
          "internalType": "uint256",
          "name": "tokenId",
          "type": "uint256"
        }
      ],
      "name": "ownerOf",
      "outputs": [
        {
          "internalType": "address",
          "name": "",
          "type": "address"
        }
      ],
      "stateMutability": "view",
      "type": "function"
    },
    {
      "inputs": [],
      "name": "renounceOwnership",
      "outputs": [],
      "stateMutability": "nonpayable",
      "type": "function"
    },
    {
      "inputs": [
        {
          "internalType": "address",
          "name": "from",
          "type": "address"
        },
        {
          "internalType": "address",
          "name": "to",
          "type": "address"
        },
        {
          "internalType": "uint256",
          "name": "tokenId",
          "type": "uint256"
        }
      ],
      "name": "safeTransferFrom",
      "outputs": [],
      "stateMutability": "nonpayable",
      "type": "function"
    },
    {
      "inputs": [
        {
          "internalType": "address",
          "name": "from",
          "type": "address"
        },
        {
          "internalType": "address",
          "name": "to",
          "type": "address"
        },
        {
          "internalType": "uint256",
          "name": "tokenId",
          "type": "uint256"
        },
        {
          "internalType": "bytes",
          "name": "data",
          "type": "bytes"
        }
      ],
      "name": "safeTransferFrom",
      "outputs": [],
      "stateMutability": "nonpayable",
      "type": "function"
    },
    {
      "inputs": [
        {
          "internalType": "address",
          "name": "operator",
          "type": "address"
        },
        {
          "internalType": "bool",
          "name": "approved",
          "type": "bool"
        }
      ],
      "name": "setApprovalForAll",
      "outputs": [],
      "stateMutability": "nonpayable",
      "type": "function"
    },
    {
      "inputs": [
        {
          "internalType": "bytes4",
          "name": "interfaceId",
          "type": "bytes4"
        }
      ],
      "name": "supportsInterface",
      "outputs": [
        {
          "internalType": "bool",
          "name": "",
          "type": "bool"
        }
      ],
      "stateMutability": "view",
      "type": "function"
    },
    {
      "inputs": [],
      "name": "symbol",
      "outputs": [
        {
          "internalType": "string",
          "name": "",
          "type": "string"
        }
      ],
      "stateMutability": "view",
      "type": "function"
    },
    {
      "inputs": [
        {
          "internalType": "uint256",
          "name": "tokenId",
          "type": "uint256"
        }
      ],
      "name": "tokenURI",
      "outputs": [
        {
          "internalType": "string",
          "name": "",
          "type": "string"
        }
      ],
      "stateMutability": "view",
      "type": "function"
    },
    {
      "inputs": [
        {
          "internalType": "address",
          "name": "from",
          "type": "address"
        },
        {
          "internalType": "address",
          "name": "to",
          "type": "address"
        },
        {
          "internalType": "uint256",
          "name": "tokenId",
          "type": "uint256"
        }
      ],
      "name": "transferFrom",
      "outputs": [],
      "stateMutability": "nonpayable",
      "type": "function"
    },
    {
      "inputs": [
        {
          "internalType": "address",
          "name": "newOwner",
          "type": "address"
        }
      ],
      "name": "transferOwnership",
      "outputs": [],
      "stateMutability": "nonpayable",
      "type": "function"
    }
  ],
  "bytecode": "0x60806040523480156200001157600080fd5b50336040518060400160405280600f81526020016e10dc9e5c1d13d991dc995959139195608a1b8152506040518060400160405280600581526020016410d496541560da1b81525081600090816200006a9190620001b6565b506001620000798282620001b6565b5050506001600160a01b038116620000ab57604051631e4fbdf760e01b81526000600482015260240160405180910390fd5b620000b681620000bd565b5062000282565b600780546001600160a01b038381166001600160a01b0319831681179093556040519116919082907f8be0079c531659141344cd1fd0a4f28419497f9722a3daafe3b4186f6b6457e090600090a35050565b634e487b7160e01b600052604160045260246000fd5b600181811c908216806200013a57607f821691505b6020821081036200015b57634e487b7160e01b600052602260045260246000fd5b50919050565b601f821115620001b1576000816000526020600020601f850160051c810160208610156200018c5750805b601f850160051c820191505b81811015620001ad5782815560010162000198565b5050505b505050565b81516001600160401b03811115620001d257620001d26200010f565b620001ea81620001e3845462000125565b8462000161565b602080601f831160018114620002225760008415620002095750858301515b600019600386901b1c1916600185901b178555620001ad565b600085815260208120601f198616915b82811015620002535788860151825594840194600190910190840162000232565b5085821015620002725787850151600019600388901b60f8161c191681555b5050505050600190811b01905550565b61183580620002926000396000f3fe608060405234801561001057600080fd5b50600436106101375760003560e01c8063715018a6116100b8578063af2a06831161007c578063af2a068314610280578063b88d4fde14610293578063c26b265f146102a6578063c87b56dd146102b9578063e985e9c5146102cc578063f2fde38b146102df57600080fd5b8063715018a6146102395780637b47ec1a146102415780638da5cb5b1461025457806395d89b4114610265578063a22cb4651461026d57600080fd5b806323b872dd116100ff57806323b872dd146101cc57806327a5a232146101df57806342842e0e146102005780636352211e1461021357806370a082311461022657600080fd5b806301ffc9a71461013c57806306fdde0314610164578063081812fc14610179578063095ea7b3146101a457806309ee4272146101b9575b600080fd5b61014f61014a3660046112cc565b6102f2565b60405190151581526020015b60405180910390f35b61016c610303565b60405161015b9190611339565b61018c61018736600461134c565b610395565b6040516001600160a01b03909116815260200161015b565b6101b76101b2366004611381565b6103be565b005b61014f6101c736600461134c565b6103cd565b6101b76101da3660046113ab565b610443565b6101f26101ed366004611493565b6104ce565b60405190815260200161015b565b6101b761020e3660046113ab565b61053a565b61018c61022136600461134c565b61055a565b6101f2610234366004611507565b610565565b6101b76105ad565b6101b761024f36600461134c565b6105c1565b6007546001600160a01b031661018c565b61016c610672565b6101b761027b366004611522565b610681565b6101b761028e36600461134c565b61068c565b6101b76102a136600461155e565b610751565b61016c6102b436600461134c565b610769565b61016c6102c736600461134c565b610865565b61014f6102da3660046115da565b610870565b6101b76102ed366004611507565b61089e565b60006102fd826108d9565b92915050565b6060600080546103129061160d565b80601f016020809104026020016040519081016040528092919081815260200182805461033e9061160d565b801561038b5780601f106103605761010080835404028352916020019161038b565b820191906000526020600020905b81548152906001019060200180831161036e57829003601f168201915b5050505050905090565b60006103a0826108fe565b506000828152600460205260409020546001600160a01b03166102fd565b6103c9828233610937565b5050565b6000818152600260205260408120546001600160a01b031661042d5760405162461bcd60e51b8152602060048201526014602482015273151bdad95b88191bd95cc81b9bdd08195e1a5cdd60621b60448201526064015b60405180910390fd5b506000908152600a602052604090205460ff1690565b6001600160a01b03821661046d57604051633250574960e11b815260006004820152602401610424565b600061047a838333610944565b9050836001600160a01b0316816001600160a01b0316146104c8576040516364283d7b60e01b81526001600160a01b0380861660048301526024820184905282166044820152606401610424565b50505050565b60006104d8610a3d565b60088054600091826104e983611647565b9190505590506104f98582610a6a565b6105038185610a84565b600081815260096020526040902061051b84826116b6565b506000818152600a60205260409020805460ff19169055949350505050565b61055583838360405180602001604052806000815250610751565b505050565b60006102fd826108fe565b60006001600160a01b038216610591576040516322718ad960e21b815260006004820152602401610424565b506001600160a01b031660009081526003602052604090205490565b6105b5610a3d565b6105bf6000610ad4565b565b336105cb8261055a565b6001600160a01b0316146106135760405162461bcd60e51b815260206004820152600f60248201526e2737ba103a37b5b2b71037bbb732b960891b6044820152606401610424565b6000818152600a602052604090205460ff166106665760405162461bcd60e51b8152602060048201526012602482015271151bdad95b881b9bdd081a5b9d995cdd195960721b6044820152606401610424565b61066f81610b26565b50565b6060600180546103129061160d565b6103c9338383610b61565b336106968261055a565b6001600160a01b0316146106de5760405162461bcd60e51b815260206004820152600f60248201526e2737ba103a37b5b2b71037bbb732b960891b6044820152606401610424565b6000818152600a602052604090205460ff16156107365760405162461bcd60e51b8152602060048201526016602482015275151bdad95b88185b1c9958591e481a5b9d995cdd195960521b6044820152606401610424565b6000908152600a60205260409020805460ff19166001179055565b61075c848484610443565b6104c83385858585610c00565b6000818152600260205260409020546060906001600160a01b03166107c75760405162461bcd60e51b8152602060048201526014602482015273151bdad95b88191bd95cc81b9bdd08195e1a5cdd60621b6044820152606401610424565b600082815260096020526040902080546107e09061160d565b80601f016020809104026020016040519081016040528092919081815260200182805461080c9061160d565b80156108595780601f1061082e57610100808354040283529160200191610859565b820191906000526020600020905b81548152906001019060200180831161083c57829003601f168201915b50505050509050919050565b60606102fd82610d2b565b6001600160a01b03918216600090815260056020908152604080832093909416825291909152205460ff1690565b6108a6610a3d565b6001600160a01b0381166108d057604051631e4fbdf760e01b815260006004820152602401610424565b61066f81610ad4565b60006001600160e01b03198216632483248360e11b14806102fd57506102fd82610e3c565b6000818152600260205260408120546001600160a01b0316806102fd57604051637e27328960e01b815260048101849052602401610424565b6105558383836001610e8c565b6000828152600260205260408120546001600160a01b039081169083161561097157610971818486610f92565b6001600160a01b038116156109af5761098e600085600080610e8c565b6001600160a01b038116600090815260036020526040902080546000190190555b6001600160a01b038516156109de576001600160a01b0385166000908152600360205260409020805460010190555b60008481526002602052604080822080546001600160a01b0319166001600160a01b0389811691821790925591518793918516917fddf252ad1be2c89b69c2b068fc378daa952ba7f163c4a11628f55a4df523b3ef91a4949350505050565b6007546001600160a01b031633146105bf5760405163118cdaa760e01b8152336004820152602401610424565b6103c9828260405180602001604052806000815250610ff6565b6000828152600660205260409020610a9c82826116b6565b506040518281527ff8e1a15aba9398e019f0b49df1a4fde98ee17ae345cb5f6b5e2c27f5033e8ce79060200160405180910390a15050565b600780546001600160a01b038381166001600160a01b0319831681179093556040519116919082907f8be0079c531659141344cd1fd0a4f28419497f9722a3daafe3b4186f6b6457e090600090a35050565b6000610b356000836000610944565b90506001600160a01b0381166103c957604051637e27328960e01b815260048101839052602401610424565b6001600160a01b038216610b9357604051630b61174360e31b81526001600160a01b0383166004820152602401610424565b6001600160a01b03838116600081815260056020908152604080832094871680845294825291829020805460ff191686151590811790915591519182527f17307eab39ab6107e8899845ad3d59bd9653f200f220920489ca2b5937696c31910160405180910390a3505050565b6001600160a01b0383163b15610d2457604051630a85bd0160e11b81526001600160a01b0384169063150b7a0290610c42908890889087908790600401611776565b6020604051808303816000875af1925050508015610c7d575060408051601f3d908101601f19168201909252610c7a918101906117b3565b60015b610ce6573d808015610cab576040519150601f19603f3d011682016040523d82523d6000602084013e610cb0565b606091505b508051600003610cde57604051633250574960e11b81526001600160a01b0385166004820152602401610424565b805181602001fd5b6001600160e01b03198116630a85bd0160e11b14610d2257604051633250574960e11b81526001600160a01b0385166004820152602401610424565b505b5050505050565b6060610d36826108fe565b5060008281526006602052604081208054610d509061160d565b80601f0160208091040260200160405190810160405280929190818152602001828054610d7c9061160d565b8015610dc95780601f10610d9e57610100808354040283529160200191610dc9565b820191906000526020600020905b815481529060010190602001808311610dac57829003601f168201915b505050505090506000610de760408051602081019091526000815290565b90508051600003610df9575092915050565b815115610e2b578082604051602001610e139291906117d0565b60405160208183030381529060405292505050919050565b610e348461100e565b949350505050565b60006001600160e01b031982166380ac58cd60e01b1480610e6d57506001600160e01b03198216635b5e139f60e01b145b806102fd57506301ffc9a760e01b6001600160e01b03198316146102fd565b8080610ea057506001600160a01b03821615155b15610f62576000610eb0846108fe565b90506001600160a01b03831615801590610edc5750826001600160a01b0316816001600160a01b031614155b8015610eef5750610eed8184610870565b155b15610f185760405163a9fbf51f60e01b81526001600160a01b0384166004820152602401610424565b8115610f605783856001600160a01b0316826001600160a01b03167f8c5be1e5ebec7d5bd14f71427d1e84f3dd0314c0f7b2291e5b200ac8c7c3b92560405160405180910390a45b505b5050600090815260046020526040902080546001600160a01b0319166001600160a01b0392909216919091179055565b610f9d838383611083565b610555576001600160a01b038316610fcb57604051637e27328960e01b815260048101829052602401610424565b60405163177e802f60e01b81526001600160a01b038316600482015260248101829052604401610424565b61100083836110e6565b610555336000858585610c00565b6060611019826108fe565b50600061103160408051602081019091526000815290565b90506000815111611051576040518060200160405280600081525061107c565b8061105b8461114b565b60405160200161106c9291906117d0565b6040516020818303038152906040525b9392505050565b60006001600160a01b03831615801590610e345750826001600160a01b0316846001600160a01b031614806110bd57506110bd8484610870565b80610e345750506000908152600460205260409020546001600160a01b03908116911614919050565b6001600160a01b03821661111057604051633250574960e11b815260006004820152602401610424565b600061111e83836000610944565b90506001600160a01b03811615610555576040516339e3563760e11b815260006004820152602401610424565b60606000611158836111de565b600101905060008167ffffffffffffffff811115611178576111786113e7565b6040519080825280601f01601f1916602001820160405280156111a2576020820181803683370190505b5090508181016020015b600019016f181899199a1a9b1b9c1cb0b131b232b360811b600a86061a8153600a85049450846111ac57509392505050565b60008072184f03e93ff9f4daa797ed6e38ed64bf6a1f0160401b831061121d5772184f03e93ff9f4daa797ed6e38ed64bf6a1f0160401b830492506040015b6d04ee2d6d415b85acef81000000008310611249576d04ee2d6d415b85acef8100000000830492506020015b662386f26fc10000831061126757662386f26fc10000830492506010015b6305f5e100831061127f576305f5e100830492506008015b612710831061129357612710830492506004015b606483106112a5576064830492506002015b600a83106102fd5760010192915050565b6001600160e01b03198116811461066f57600080fd5b6000602082840312156112de57600080fd5b813561107c816112b6565b60005b838110156113045781810151838201526020016112ec565b50506000910152565b600081518084526113258160208601602086016112e9565b601f01601f19169290920160200192915050565b60208152600061107c602083018461130d565b60006020828403121561135e57600080fd5b5035919050565b80356001600160a01b038116811461137c57600080fd5b919050565b6000806040838503121561139457600080fd5b61139d83611365565b946020939093013593505050565b6000806000606084860312156113c057600080fd5b6113c984611365565b92506113d760208501611365565b9150604084013590509250925092565b634e487b7160e01b600052604160045260246000fd5b600067ffffffffffffffff80841115611418576114186113e7565b604051601f8501601f19908116603f01168101908282118183101715611440576114406113e7565b8160405280935085815286868601111561145957600080fd5b858560208301376000602087830101525050509392505050565b600082601f83011261148457600080fd5b61107c838335602085016113fd565b6000806000606084860312156114a857600080fd5b6114b184611365565b9250602084013567ffffffffffffffff808211156114ce57600080fd5b6114da87838801611473565b935060408601359150808211156114f057600080fd5b506114fd86828701611473565b9150509250925092565b60006020828403121561151957600080fd5b61107c82611365565b6000806040838503121561153557600080fd5b61153e83611365565b91506020830135801515811461155357600080fd5b809150509250929050565b6000806000806080858703121561157457600080fd5b61157d85611365565b935061158b60208601611365565b925060408501359150606085013567ffffffffffffffff8111156115ae57600080fd5b8501601f810187136115bf57600080fd5b6115ce878235602084016113fd565b91505092959194509250565b600080604083850312156115ed57600080fd5b6115f683611365565b915061160460208401611365565b90509250929050565b600181811c9082168061162157607f821691505b60208210810361164157634e487b7160e01b600052602260045260246000fd5b50919050565b60006001820161166757634e487b7160e01b600052601160045260246000fd5b5060010190565b601f821115610555576000816000526020600020601f850160051c810160208610156116975750805b601f850160051c820191505b81811015610d22578281556001016116a3565b815167ffffffffffffffff8111156116d0576116d06113e7565b6116e4816116de845461160d565b8461166e565b602080601f83116001811461171957600084156117015750858301515b600019600386901b1c1916600185901b178555610d22565b600085815260208120601f198616915b8281101561174857888601518255948401946001909101908401611729565b50858210156117665787850151600019600388901b60f8161c191681555b5050505050600190811b01905550565b6001600160a01b03858116825284166020820152604081018390526080606082018190526000906117a99083018461130d565b9695505050505050565b6000602082840312156117c557600080fd5b815161107c816112b6565b600083516117e28184602088016112e9565b8351908301906117f68183602088016112e9565b0194935050505056fea2646970667358221220690b6f2c0886ed06c5d0acad6607fe4f657e609222aaea8df00569ad0ee44a8264736f6c63430008180033",
  "linkReferences": {},
  "deployedLinkReferences": {}
}